:100000000C9400010C9426010C94172D0C94BD2E19
:100010000C9426010C9426010C9426010C942601C4
:100020000C9426010C9426010C9426010C942601B4
:100030000C94CB200C9448240C94F8350C948F34F9
:100040000C941F3A0C94E5390C94AB390C9471392B
:100050000C944D350C94E4330C9467370C942D3785
:100060000C9426010C94411E0C944F1B0C945E1BA7
:100070000C94081E0C946D1B0C947C1B0C94260194
:100080000C9426010C9426010C94502D0C94F62E01
:100090000C9426010C9426010C9426010C94260144
:1000A0000C9426010C9426010C9426010C94A52C8A
:1000B0000C944B2E0C94DA200C940F240C9486355F
:1000C0000C941D340C944F380C9415380C94DB3779
:1000D0000C94A1370C94DB340C9472330C947F365F
:1000E0000C9445360C9426010C945D1D0C94C71B92
:1000F0000C94D61B0C94241D0C94E51B0C94F41B3F
:100100000C94DE2C0C94842E0C94892D0C942F2F9F
:100110000C9426010C9426010C9426010C942601C3
:100120000C9426010C9426010C9426010C94E920D1
:100130000C94D6230C94BF350C9456340C94373958
:100140000C94FD380C94C3380C9489380C941435F5
:100150000C94AB330C94F3360C94B9360C94260102
:100160000C94CF1D0C948B1B0C949A1B0C94961D15
:100170000C94A91B0C94B81B0C9426010C9426011A
:100180000C94332C0C94D92D0C9426010C9426013C
:100190000C9426010C9426010C9426010C94260143
:1001A0000C946C2C0C94122E0C94F8200C949D231F
:1001B0000C94753A0C9426010C9426010C9426019B
:1001C0000C9426010C9426010C94B13A0C9426014F
:1001D0000C9426010C9426010C9426010C94EB1C23
:1001E0000C94031C0C94121C0C94B21C0C94211C37
:1001F0000C94301C6364696E6F70737578585B0083
:1002000011241FBECFEFDFE3DEBFCDBF00E00CBF88
:1002100018BE19BE1ABE1BBE16E2A0E0B0E2E6EDA3
:10022000F3EA00E00BBF02C007900D92AA32B107BB
:10023000D9F71BBE1CE2AAE2B6E201C01D92AD30A6
:10024000B107E1F70E949B010C94E9510C94000066
:100250000895FC018381A681B781882329F0138248
:1002600080E416968C93089581E0838380E415964C
:100270008C93089508950F931F938C01FC012085A2
:1002800031854285538562E17AE780E090E00E9403
:100290007449F80184859585B9010E94FB321F914C
:1002A0000F9108950F931F938C01CB01D8011C96D9
:1002B0006D937C931D9766E00E94B632D801ED9154
:1002C000FC910084F185E02DC8011995F801848521
:1002D000958560E00E94BC32D8011C968D919C915E
:1002E0001D9760E00E94C732F8018485958560E023
:1002F00040E00E94D032D8011C968D919C911D97B0
:1003000060E042E00E94D732F8018485958560E084
:100310000E94E632D8011C968D919C911D97B801E0
:1003200040E00E945A331F910F9108950E942015BA
:100330000E94593A08954F925F926F927F928F92E6
:100340009F92AF92BF92CF92DF92EF92FF920F9364
:100350001F93DF93CF93CDB7DEB7C551D540CDBF47
:10036000DEBF0E9496018091A2008760E0EAF0E083
:10037000828378940BE2E02EF12CEC0EFD1EC70177
:1003800060EB7BE040EA56E020E400E80E941720A2
:10039000C70140E052EC61E070E020E00E947C1E6A
:1003A000E0922A26F0922B26C70160E00E94E81F07
:1003B0001CE3E12EF12CEC0EFD1EC70160EA79E092
:1003C00040E656E024E008E00E941720C70140E024
:1003D00052EC61E070E020E00E947C1E88ED84BF5A
:1003E00081E0E0E9F0E086838E01035F1F4FC801E2
:1003F00060E276E00E94B320C80160EF44E00E9412
:100400009420C8016FE00E947D20C80160E00E9436
:100410007D2000932C2610932D26B6EBAB2EB2E058
:10042000BB2EAC0EBD1EC50160E874E00E94EE2636
:10043000AEE4CA2EA3E0DA2ECC0EDD1EC60160E9C2
:1004400074E00E94EE26F6EEEF2EF3E0FF2EEC0EA7
:10045000FD1EC70160EA74E00E94EE268E0102587C
:100460001B4FC80160EB74E00E94EE26AD8ABE8A85
:10047000CF8AD88EE98EFA8E0B8F1C8F8E010B5E81
:100480001F4FEDE1EE2EF12CEC0EFD1ED8018D91EB
:100490009C91009731F040E85AE166E070E00E94DC
:1004A000AA260E5F1F4F0E151F0581F780E197E208
:1004B00020E233E0F9013197F1F70197D9F778E7B6
:1004C000672E712C6C0E7D1EC301BE016A547D4FD8
:1004D0000E94AB0D6AEC862E912C8C0E9D1EC401E1
:1004E000BE01625B7C4F0E94AB0D5CE1A52E51E02A
:1004F000B52EAC0EBD1EC501BE016A517C4F0E94D7
:10050000AB0D4EE6C42E41E0D42ECC0EDD1EC6014E
:10051000BE0162587B4F0E94AB0D8E01035F1F4FDF
:10052000C301B8010E945F03C401B8010E945F03C8
:10053000C501B8010E945F03C601B8010E945F03B4
:100540007E010894E11CF11CC70160E478E00E9480
:100550001E328E010C5D1D4F3CE3432E512C4C0E80
:100560005D1EC801B2010E94D70EC80160E077E0AD
:1005700040E80E94050FC8010E941C0FC801B70186
:100580000E94DC12C801B3010E94E20FC801B4014D
:100590000E94E20FC801B5010E94E20FC801B60136
:1005A0000E94E20FC8016AE070E00E9430122DE460
:1005B000E22EF12CEC0EFD1EC701B201AE014B5E26
:1005C0005F4F98010E94E918EDB7FEB77497EDBF31
:1005D000FEBF319690ECC92E91E0D92ECC0EDD1ED7
:1005E000ADB7BEB71196CD92DC92129780E090E243
:1005F0008283938381E090E08483958316821782BF
:100600008087918784E090E0828793878BE190E0F8
:10061000848795878BED97E08687978782E090E0C7
:10062000808B918B83E290E0828B938B0E94C34BF3
:10063000EDB7FEB77496EDBFFEBFC201B6010E94D2
:10064000582987E0C82ED12CCC0EDD1EC60160E0F3
:1006500079E00E94DB3189E690E28D8F9E8F18A2AF
:10066000E0E4F6E0EBA3FCA380E48183858382E0F1
:1006700090E0A0E0B0E08DA39EA3AFA3B8A7CE0109
:100680004D96B6010E945201C2016EE470E20E94D2
:100690005829AE2CEF2CC02E012F8A2D9E2D0E94A2
:1006A00060158C2D902F0E949113F7CFFC01608F65
:1006B0000895FC01E05BFF4F608371830895FC01A6
:1006C000E45BFF4F608371830895FC01E25BFF4FA1
:1006D000608371830895FC018681811181E0089512
:1006E000FC018485882311F481E00895F8948385C2
:1006F000DF01AF5BBF4F882351F08C91882341F01D
:10070000EE5BFF4F8081882319F081E001C08C915E
:1007100078940895FC01E60FF11DE05CFF4F81E045
:100720008083089508950895089508950F931F9361
:100730008B01FC01818592856EE276E242E00E94A7
:10074000D02790912E2680E020912F2630E0822B1A
:10075000932BF801808391831F910F910895FC01E1
:1007600070E06150704084E190E09B01289FB001EF
:10077000299F700D389F700D11246F5D7F4F6E0F94
:100780007F1F8185928546E00E94D0270895FC0155
:1007900070E06150704084E190E09B01289FB001BF
:1007A000299F700D389F700D1124675E7F4F6E0F6B
:1007B0007F1F8185928548E00E94D02708950F937E
:1007C000DF93CF930F92CDB7DEB74983022FFC01A1
:1007D00081859285AE014F5F5F4F21E00E94EB273C
:1007E000282F332727FD3095C9010F90CF91DF9136
:1007F0000F910895CF93DF93EC018E81893069F0DA
:100800008A3018F48830B9F405C08A3049F08B304A
:1008100091F40BC0CE016F8505C0CE01698907C078
:10082000CE0168894BE128E004C0CE016A8948EA1C
:1008300026E00E94DF030E94E03AC65BDF4F688338
:10084000798380E090E0DF91CF910895FF920F933C
:100850001F93CF93DF938C01F62E4093B026209305
:10086000B12600D000D0EDB7FEB73196C0E3D6E296
:10087000ADB7BEB71196CD93DC9312978DE790E29A
:1008800082839383648315820E94C34B80912A26BE
:1008900090912B26EDB7FEB73696EDBFFEBF0097C1
:1008A00019F0BE010E945829D80119968D919C918A
:1008B0001A976F2D40EB56E222E000E00E94EB27F2
:1008C000282F332727FD3095C901DF91CF911F9144
:1008D0000F91FF900895BF92CF92DF92EF92FF9217
:1008E0000F931F93DF93CF930F92CDB7DEB77C01A9
:1008F0004983B22E6801FC0181859285AE014F5F6C
:100900005F4F21E00B2D0E944A28282F332727FD17
:10091000309537FD09C0F70181859285B6014B2DD1
:100920000E94D027282F30E0C9010F90CF91DF918E
:100930001F910F91FF90EF90DF90CF90BF9008959F
:100940004093B2262093B326FC018185928542EB29
:1009500056E222E00E948928282F332727FD309570
:10096000C90108958F929F92AF92BF92CF92DF926A
:10097000EF92FF920F931F93DF93CF93CDB7DEB724
:10098000E697CDBFDEBF6C01262FFC016689778913
:1009900088EE93E00E944D49AB01DE01119686E39B
:1009A000FD0111928A95E9F78DE38A839FE09B838D
:1009B00080E28D8387E38E8381E2888782E28B8762
:1009C00083E28E8780EC8F8784E2898B8CE08C8B2E
:1009D0008DE08F8B8EE08A8F9D8F80E188A381E1EF
:1009E0008BA382E18EA38FEF8FA383E189A785E19B
:1009F0008CA786E18FA787E18AAB8EE38DABF601EA
:100A0000E20FF11D2785298381898C838F838A8753
:100A10008D87888B2B8B2E8B298F2C8F2F8F2AA342
:100A20002DA328A72BA7415050404DA72EA7F60174
:100A30008489880F880F880F9389892B88AB29AB0D
:100A40002CAB85898EAB7D019AE4A92EB12CAC0C20
:100A5000BD1C87E3882E912C8C0E9D1EC601F701CC
:100A60006081418122810E94A0048C010E94E03AB1
:100A7000F5016083718317FD09C083E090E0E80E03
:100A8000F91EE814F90451F700E010E0C801E696F9
:100A9000CDBFDEBFCF91DF911F910F91FF90EF90FF
:100AA000DF90CF90BF90AF909F908F900895CF939D
:100AB000DF93FC0126893789ED5BFF4FC081D1812F
:100AC0002097E1F040E050E060E271EA87E090E0DA
:100AD0000E949649C901DA019C01AD01293E8DEFC2
:100AE000380780E0480780E0580720F028EE3DEF07
:100AF00040E050E0CE01B9010E94FB32DF91CF917E
:100B00000895CF93DF93EC016A30710518F48AE001
:100B100090E005C0693C710528F088EC90E08E8B70
:100B20009F8B02C06E8B7F8B80912A2690912B2603
:100B3000009721F06CE870E20E945829CE010E94D3
:100B40005705DF91CF910895FC01ED5BFF4F808148
:100B50009181009721F060E070E00E94EC320895EE
:100B6000EF92FF920F931F938C01CB0123E4E22EAF
:100B7000F12CE00EF11EF7016083718365E00E94A5
:100B8000B632C8010E945705F7018081918160E06B
:100B90000E94BC32F7018081918160E00E94C732DF
:100BA000F7018081918160E040E00E94D032F7013E
:100BB0008081918160E041E00E94D732F70180811D
:100BC000918160E00E94E6320C5F1F4FF701808147
:100BD0009181B80140E00E945A331F910F91FF901C
:100BE000EF9008952F923F924F925F926F927F9273
:100BF0008F929F92AF92BF92CF92DF92EF92FF922D
:100C00000F931F93DF93CF93CDB7DEB7E297CDBF9E
:100C1000DEBF5C014B018C01EE24FF246E010894C1
:100C2000C11CD11C5DE9252E50E2352E4EED442E1F
:100C300040E2542E3BEC632E30E2732EAEC0D50161
:100C400019968D919C911A97F80167850E949E28AC
:100C5000282F332727FD309521153105E9F48DB76D
:100C60009EB708978DBF9EBFEDB7FEB73196ADB763
:100C7000BEB71196CD92DC92129722823382E48223
:100C8000F582D8011F968C91868317820E94C34BF0
:100C9000EDB7FEB7389620C08DB79EB70A978DBFC7
:100CA0009EBFEDB7FEB73196ADB7BEB71196CD92E8
:100CB000DC92129781EB90E282839383E482F58247
:100CC000D8011F968C9186831782208731870E94D6
:100CD000C34BEDB7FEB73A96EDBFFEBFC401B601F8
:100CE0000E945829C501D8011F966C914DE328E058
:100CF0000E94A004F50181859285D80151966C91DE
:100D00000E949E28282F332727FD30952115310575
:100D1000D9F4EDB7FEB73897EDBFFEBF3196ADB74A
:100D2000BEB71196CD92DC92129762827382E482F2
:100D3000F582D80151968C91868317820E94C34B0D
:100D4000EDB7FEB738961EC08DB79EB70A978DBF18
:100D50009EBFEDB7FEB73196ADB7BEB71196CD9237
:100D6000DC92129742825382E482F582D801519636
:100D70008C9186831782208731870E94C34BEDB701
:100D8000FEB73A96EDBFFEBFC401B6010E945829D6
:100D90000894E11CF11C0F5F1F4FD5011C968C912C
:100DA00090E0E816F9060CF44ACFE296CDBFDEBF1C
:100DB000CF91DF911F910F91FF90EF90DF90CF9037
:100DC000BF90AF909F908F907F906F905F904F906B
:100DD0003F902F900895CF93DF93EC011C861B86E4
:100DE00089859A8562ED0E949E28882351F49C850E
:100DF000FE01E90FF11D82ED878782E3818B9F5F02
:100E00009C8789859A8560ED0E949E28882351F4ED
:100E10009C85FE01E90FF11D80ED878780E3818BC2
:100E20009F5F9C878C85823010F081E08B87DF91FB
:100E3000CF9108950F931F93CF93DF93EC01DB01C4
:100E40008C85882309F475C0F894FB0185EA8193A9
:100E50008AE511968C9311978F010F5F1F4F8E813A
:100E6000882379F48885813021F4C8016EE470E02C
:100E700003C0C80169E470E040E150E00E94404BCB
:100E800014C0CF5BDF4F8881C154D040882381F0EC
:100E9000D801FE01799680E101900D928150E1F731
:100EA000CF5BDF4F1882C154D040D801509606C0A6
:100EB00080E1F80111928A95E9F752968B85882393
:100EC000B9F1FD0185EA81938AE511968C9311971A
:100ED0008F010F5F1F4F8E81882379F488858130C1
:100EE00021F4C8016EE470E003C0C80169E470E059
:100EF00040E150E00E94404B12C0CE5BDF4F888142
:100F0000C254D040882371F0D801FE01BD9680E123
:100F100001900D928150E1F7CE5BDF4F1882D8012E
:100F2000509606C080E1F80111928A95E9F7529631
:100F30007894CD01DF91CF911F910F9108951F9368
:100F4000CF93DF93EC01142F6883798361157105CA
:100F500061F0CB0161E00E947D2080E28A95F1F78B
:100F600088819981612F0E947D20DF91CF911F910F
:100F70000895FC01868187836683E45BFF4F80814F
:100F80009181009711F00E947D200895CF93DF9307
:100F9000EC018E81893099F08A3020F4883009F094
:100FA00048C006C08A30F1F08B3009F042C023C03F
:100FB000CE0161E00E94C703CE0169E019C0CE01F5
:100FC00061E00E94AF03CF5BDF4F81E08883C154B3
:100FD000D0408B858823C9F0888D882339F0CE01D5
:100FE0006AE006C0CE0162E00E94C703CE016BE05A
:100FF0000E94B9071EC0CE0162E00E94AF03CE5B23
:10100000DF4F81E08883C254D040CE0165E00E946A
:10101000B907C05BDF4FA881B981C055D040109798
:1010200041F0ED91FC9111970488F589E02DCD01F7
:101030001995CE010E94FA03DF91CF910895FC012A
:10104000F894EB5BFF4F1082E554F040CF0160E075
:101050000E94B907789480E090E00895FC018081B7
:10106000918160E00E947D20089502970E943908D6
:101070000895EF92FF920F931F93DF93CF930F92F8
:101080000F92CDB7DEB77C0125E430E0E20EF31E0F
:10109000F70180812BEB3FEFE20EF31E882341F135
:1010A0008EE490E0E80EF91EF701608171818E01F7
:1010B0000F5F1F4FC80143E00E949F070E94E03A64
:1010C0002CEF3FEFE20EF31EF70160837183129263
:1010D0001292129212927F012AEB3FEFE20EF31E60
:1010E000F7011086C7010E94C607C8010E942E089A
:1010F0000F900F90CF91DF911F910F91FF90EF9084
:10110000089502970E9485080895EF92FF920F9329
:101110001F93DF93CF930F920F92CDB7DEB77C0171
:1011200025E430E0E20EF31EF70180812BEB3FEF68
:10113000E20EF31E882341F18EE490E0E80EF91EE2
:10114000F701608171818E010F5F1F4FC80142E07E
:101150000E949F070E94E03A2CEF3FEFE20EF31E41
:10116000F7016083718312921292129212927F01A0
:101170002AEB3FEFE20EF31EF7011086C7010E9433
:10118000C607C8010E942E080F900F90CF91DF91E3
:101190001F910F91FF90EF900895EF92FF920F93A0
:1011A0001F93DF93CF930F920F92CDB7DEB78C01D1
:1011B000DC011C968C91882319F4EE24FF244AC08C
:1011C000025B1F4FF801608171810E541040CE0107
:1011D000019642E00E949F07D80116968C911697BF
:1011E000823051F0ED91FC910480F581E02DC80131
:1011F00019957C0197FD2AC0F894D801ED91FC91D6
:101200000684F785E02DC8011995C80165E00E94A4
:10121000B907075B1F4FF8011082D8011E92FD012C
:10122000129212928F0106541040D80118961C9207
:101230000F5B1F4FF80111928F0110820D5F1F4F3E
:1012400081E0D8018C937894EE24FF24CE0101969E
:101250000E942E08C7010F900F90CF91DF911F9130
:101260000F91FF90EF900895CF92DF92EF92FF924F
:101270000F931F93DF93CF930F920F92CDB7DEB7EB
:101280008C01FC018485882319F4EE24FF246EC0B0
:101290000B5B1F4FF8011082075F1F4FF801608141
:1012A00071810E541040CE01019647E00E949F07C5
:1012B000F8018681882351F080912A2690912B266F
:1012C000009709F44DC067EF70E248C0075B1F4FFD
:1012D000F80110821292129212928F01065410405D
:1012E000F8011086C80161E00E94B907CC24DD2412
:1012F00023C080912A2690912B26009721F06DE043
:1013000071E20E945829C8016C2D0E94B2047C0130
:1013100097FF0FC0C80160E00E94B90780912A269C
:1013200090912B260097F1F06EE171E20E9458290E
:1013300019C00894C11CD11CF801848590E0C8161E
:10134000D906BCF2C80162E00E94B90780912A2642
:1013500090912B26009721F064E371E20E945829B6
:10136000EE24FF24CE0101960E942E08C7010F90A3
:101370000F90CF91DF911F910F91FF90EF90DF9031
:10138000CF900895CF93DF93EC0188858230E1F010
:101390008330D0F4813059F5C85BDF4F8881C85461
:1013A000D040873048F08A30F0F4E881F98101902C
:1013B000F081E02DCE01199589859A856AE040E09B
:1013C00021E00E9407220FC0CA5BDF4F888199810C
:1013D000C654D040059738F4E881F9810190F08136
:1013E000E02DCE011995CE016F810E94B907CE0183
:1013F0000E94FA03DF91CF91089502970E94010A9B
:101400000895CF92DF92EF92FF920F931F93DF9395
:10141000CF9300D00F92CDB7DEB76C0125E430E05A
:10142000C20ED31EF60180812BEB3FEFC20ED31EFE
:10143000882309F45DC00E94E03AEAE4F0E0CE0EB1
:10144000DF1EF6016083718326EB3FEFC20ED31ED1
:101450006EE4E62EF12CEC0CFD1CF701608171812D
:101460008E010F5F1F4FC80145E00E949F0780E279
:101470008A95F1F7C8010E942E08F70160817181F9
:10148000CE01039646E00E949F0729E430E0C20E99
:10149000D31E81E0F601808327EB3FEFC20ED31EFF
:1014A00086010A5B1F4FF80180819181019680833C
:1014B000918383E0F6018087C6016CE00E94B90742
:1014C00085E38A95F1F7F801808191810B9720F0EF
:1014D000C6010E94C20908C0C601F60167810E94C8
:1014E000B907C6010E94FA03CE0103960E942E0896
:1014F0002496CDBFDEBFCF91DF911F910F91FF905A
:10150000EF90DF90CF90089502970E94880A089587
:10151000CF92DF92EF92FF920F931F93DF93CF93BF
:1015200000D00F92CDB7DEB76C0125E430E0C20EDB
:10153000D31EF60180812BEB3FEFC20ED31E882312
:1015400009F45DC00E94E03AEAE4F0E0CE0EDF1E4E
:10155000F6016083718326EB3FEFC20ED31E7EE45B
:10156000E72EF12CEC0CFD1CF701608171818E01DE
:101570000F5F1F4FC80145E00E949F0780E28A95D8
:10158000F1F7C8010E942E08F70160817181CE0138
:10159000039645E00E949F0729E430E0C20ED31E67
:1015A00081E0F601808327EB3FEFC20ED31E860158
:1015B0000A5B1F4FF801808191810196808391839E
:1015C00082E0F6018087C6016CE00E94B90785E3DE
:1015D0008A95F1F7F801808191810B9720F0C6017F
:1015E0000E94C20908C0C601F60167810E94B907BE
:1015F000C6010E94FA03CE0103960E942E0824968B
:10160000CDBFDEBFCF91DF911F910F91FF90EF9083
:10161000DF90CF90089502970E940F0B0895CF920C
:10162000DF92EF92FF920F931F93DF93CF9300D03F
:101630000F92CDB7DEB76C0125E430E0C20ED31EA9
:10164000D6018C91EBEBFFEFCE0EDF1E882309F461
:101650005BC00E94E03A2AE430E0C20ED31ED601FD
:101660006D937C93E6EBFFEFCE0EDF1EEEE4EE2EE5
:10167000F12CEC0CFD1CD7016D917C918E010F5F5C
:101680001F4FC80145E00E949F0780E28A95F1F74D
:10169000C8010E942E08F70160817181CE01039676
:1016A00044E00E949F078601085B1F4FD8018C9180
:1016B0008F5F8C93C6016CE00E94B90785E38A9521
:1016C000F1F7F8010081053050F4C601D6011796F4
:1016D0006C910E94B907C6010E94FA0311C00A303A
:1016E00038F481E0F6018087C6010E94C20908C073
:1016F000D601ED91FC910084F185E02DC60119958C
:10170000CE0103960E942E082496CDBFDEBFCF9156
:10171000DF911F910F91FF90EF90DF90CF90089590
:101720000F931F93DF93CF930F920F92CDB7DEB736
:101730008C010B5B1F4FD8018C91055410408823FE
:1017400009F44CC0025B1F4FF801608171810E5497
:101750001040CE01019641E00E949F07D8011996E2
:101760008D919C911A970E945221882301F10E9429
:10177000E03A065B1F4FF801208131810A54104086
:1017800040E050E0621B730B840B950B63307105D6
:101790008105910560F0D801ED91FC910190F081F7
:1017A000E02DC8011995C80165E00E94B907F8014C
:1017B0008681853079F4D80158968C91882319F068
:1017C000C80168E002C0C80169E00E94B907C80109
:1017D0000E94FA03CE0101960E942E080F900F90EE
:1017E000CF91DF911F910F91089504970E94F90BFB
:1017F00008950E94900B0895FC018681853021F4A4
:10180000CF010E94900B06C0E05BFF4FA081B18129
:10181000109719F420E030E009C0ED91FC91119788
:101820000488F589E02DCD0119959C01C901089521
:10183000FC01818592850E947821282F332727FD7E
:101840003095C9010895FC01818592850E9471211E
:1018500008950F931F938C01FC01818592850E944E
:101860007A26F8018185928540E85AE166E070E0C9
:101870000E94AA26F801818592850E5F1F4FB8014C
:101880000E942A211F910F910895CF92DF92EF922B
:101890000F936C01CB0169E471E2F60160837183FF
:1018A0006E5C7F4F6283738369E871E26483758342
:1018B00060E570E0C60ED71EF6011082118260EB63
:1018C0007FEFC60ED71EF6014787218B008BE28A79
:1018D00031E0338722E0248781879287338B348BF2
:1018E000358B2AE030E0268B378B168225E430E0FA
:1018F000C20ED31EF60110822DEB3FEFC20ED31E97
:10190000B6010E942A216AE470E0C60ED71EF601D5
:10191000119211926F011082118225EF3FEFC20EDA
:10192000D31EF6011082118226E030E0C20ED31ED3
:10193000F60110821292129212926F012AEB3FEF7F
:10194000C20ED31EF6011086108E0F91EF90DF901D
:10195000CF900895CF92DF92EF920F936C01CB015D
:1019600069E471E2F601608371836E5C7F4F62838C
:10197000738369E871E26483758360E570E0C60E85
:10198000D71EF6011082118260EB7FEFC60ED71EC4
:10199000F6014787218B008BE28A31E0338722E012
:1019A000248781879287338B348B358B2AE030E014
:1019B000268B378B168225E430E0C20ED31EF6014B
:1019C00010822DEB3FEFC20ED31EB6010E942A21DA
:1019D0006AE470E0C60ED71EF601119211926F01F3
:1019E0001082118225EF3FEFC20ED31EF601108246
:1019F000118226E030E0C20ED31EF6011082129250
:101A0000129212926F012AEB3FEFC20ED31EF60123
:101A10001086108E0F91EF90DF90CF9008950F9366
:101A20001F938C01CB0169E471E2F801608371833B
:101A30006E5C7F4F6283738369E871E264837583B0
:101A4000005B1F4FF8011082118200551040F80111
:101A50004787218B138621E0248781879287238BF8
:101A6000248B258B2AE030E0268B378B16820B5B8C
:101A70001F4FF801108203541040B8010E942A2120
:101A8000065B1F4FF801119211928F011082118293
:101A90000B501040F801108211820A5F1F4FF801AD
:101AA00010821292129212928F0106541040F80185
:101AB0001086108E1F910F9108950F931F938C0124
:101AC000CB0169E471E2F801608371836E5C7F4F42
:101AD0006283738369E871E264837583005B1F4FDF
:101AE000F8011082118200551040F8014787218BC0
:101AF000138621E0248781879287238B248B258B73
:101B00002AE030E0268B378B16820B5B1F4FF801E3
:101B1000108203541040B8010E942A21065B1F4F17
:101B2000F801119211928F01108211820B50104016
:101B3000F801108211820A5F1F4FF8011082129281
:101B4000129212928F0106541040F8011086108EE6
:101B50001F910F9108950F931F938C01CB0129E4DE
:101B600031E2D8012D933C9311972E5C3F4F129692
:101B70002D933C93139729E831E214962D933C93CF
:101B80001597F801E05BFF4F1F961C921F97519627
:101B90001C92519750961C92509752961C925297B5
:101BA0001B961C921B971C961C921C9719966D9362
:101BB0007C931A9721E053962C93539754962C9329
:101BC000549755962C9355972AE030E056962D93CE
:101BD0003C93579716961C92169717961C920B5B80
:101BE0001F4FD8011C920B5F1F4FD8011D921C92F2
:101BF00009501040D8011D928D011C92095F1F4FA2
:101C0000D8011C921E921E921E928D010654104005
:101C1000D80118961C92045B1F4FD8011D921D928B
:101C20008D011D921C92108211820B501040F80100
:101C30001082118203541040D80158961C92B801AA
:101C40006E5F7F4F0E942A21C8010E94EB061F9100
:101C50000F9108950F931F938C01CB0129E431E27A
:101C6000D8012D933C9311972E5C3F4F12962D93E4
:101C70003C93139729E831E214962D933C931597E2
:101C8000F801E05BFF4F1F961C921F9751961C9224
:101C9000519750961C92509752961C9252971B96B1
:101CA0001C921B971C961C921C9719966D937C9303
:101CB0001A9721E053962C93539754962C9354974C
:101CC00055962C9355972AE030E056962D933C93E9
:101CD000579716961C92169717961C920B5B1F4FE0
:101CE000D8011C920B5F1F4FD8011D921C92095006
:101CF0001040D8011D928D011C92095F1F4FD80121
:101D00001C921E921E921E928D0106541040D80104
:101D100018961C92045B1F4FD8011D921D928D01D5
:101D20001D921C92108211820B501040F8011082FB
:101D3000118203541040D80158961C92B8016E5F6E
:101D40007F4F0E942A21C8010E94EB061F910F912C
:101D50000895FC018AEF91E28083918312821382BD
:101D60001482158216821782108611861786108AB1
:101D7000118A128A138A128613861586EE57FF4F30
:101D80001192119261937193119211928AE090E0F5
:101D90008193919388EE93E0A0E0B0E081939193DA
:101DA000A193B19310821182128213820895FC01D3
:101DB0008AEF91E2808391831282138214821582CA
:101DC00016821782108611861786108A118A128A47
:101DD000138A128613861586EE57FF4F11921192C1
:101DE00061937193119211928AE090E081939193A3
:101DF00088EE93E0A0E0B0E081939193A193B1933A
:101E000010821182128213820895FC01DB01628725
:101E10007387448711964C93A285B3858485159664
:101E20008C9315860895FC01A285B385848516964A
:101E30008C9381E085870895FC01A285B385848514
:101E400015968C9315860895FC01838966E00E949F
:101E50004149992371F48585A285B38594858823AA
:101E600021F0158616969C93089581E08587159636
:101E70009C930895FC018585A285B385948588236C
:101E800021F0158616969C93089581E08587159616
:101E90009C930895DC011A96ED91FC911B971C967A
:101EA0008C911C97868384EA96E020E233E0F90166
:101EB0003197F1F70197D9F71A96ED91FC911B979D
:101EC0001C968C911C97858382E593E020E233E099
:101ED000F9013197F1F70197D9F71A96ED91FC9135
:101EE0001B971C968C911C97868384EA96E020E2CF
:101EF00033E0F9013197F1F70197D9F71A96ED918F
:101F0000FC911B971C968C911C9785838AEA90E024
:101F100020E233E0F9013197F1F70197D9F71D96E7
:101F20001C920895DC011A96ED91FC911B971C966A
:101F30008C911C97868382E593E020E233E0F901DF
:101F40003197F1F70197D9F71A96ED91FC911B970C
:101F50001C968C911C97858382E593E020E233E008
:101F6000F9013197F1F70197D9F71A96ED91FC91A4
:101F70001B971C968C911C97868382E593E020E248
:101F800033E0F9013197F1F70197D9F71A96ED91FE
:101F9000FC911B971C968C911C97858382E593E09E
:101FA00020E233E0F9013197F1F70197D9F71A965A
:101FB000ED91FC911B971C968C911C9786831D9626
:101FC0001C9208950F931F93CF93DF938C01DC0134
:101FD000C0E0D0E012968D919C911397FE0131964E
:101FE000892BE1F4EE0FFF1FE00FF11F6083718377
:101FF000209779F0FE01EE0FFF1FE00FF11FA08187
:10200000B181ED91FC9111970288F389E02DCD010A
:102010001995F80187858F5F878707C0EF011296B2
:10202000E430F105B9F6CFEFDFEFCE01DF91CF91CC
:102030001F910F9108950F931F93CF93DF938C01FE
:1020400020E030E0C0E0D0E0F801A281B381109739
:1020500059F0ED91FC9111970480F581E02DCD01AF
:1020600019959C0197FD06C021960E5F1F4FC43045
:10207000D10551F7C901DF91CF911F910F910895BB
:102080000F931F93CF93DF938C0120E030E0C0E0EB
:10209000D0E0F801A281B381109759F0ED91FC9145
:1020A00011970680F781E02DCD0119959C0197FDD0
:1020B00006C021960E5F1F4FC430D10551F7C901EC
:1020C000DF91CF911F910F910895EF92FF920F939F
:1020D0001F93CF93DF93EC017C0100E010E0F70148
:1020E000A281B381109741F0ED91FC91119700848A
:1020F000F185E02DCD0119950F5F1F4F82E090E033
:10210000E80EF91E0430110551F7188ACE010E941D
:10211000920FEA85FB858C8585831D86DF91CF91A3
:102120001F910F91FF90EF900895EF92FF920F9300
:102130001F93CF93DF937C018C01C0E0D0E0F801C6
:10214000A281B381109741F0ED91FC91119701901C
:10215000F081E02DCD01199521960E5F1F4FC430FF
:10216000D10569F7F701108A138ADF91CF911F918A
:102170000F91FF90EF9008950F931F93CF93DF93EC
:102180008C01C0E0D0E0F801A281B381109741F04A
:10219000ED91FC911197048CF58DE02DCD011995F1
:1021A00021960E5F1F4FC430D10569F7DF91CF91A3
:1021B0001F910F9108950F931F93CF93DF938C017D
:1021C000C0E0D0E0F801A281B381109741F0ED9119
:1021D000FC9111970284F385E02DCD01199521968C
:1021E0000E5F1F4FC430D10569F7DF91CF911F916A
:1021F0000F910895EF92FF920F931F93CF93DF9368
:10220000FC017B0157FF18C08C01C0E0D0E0F80151
:10221000A281B381109749F0ED91FC911197028C46
:10222000F38DE02DCD01B701199521960E5F1F4F5B
:10223000C430D10561F712C04F5F5F4F440F551F87
:10224000E40FF51FA081B181109741F0ED91FC9151
:102250001197028CF38DE02DCD011995DF91CF916F
:102260001F910F91FF90EF900895FF920F931F938E
:10227000CF93DF938C01FF24F394C0E0D0E0F8010A
:10228000A281B381109759F0ED91FC9111970688C6
:10229000F789E02DCD011995882309F4FF242196B3
:1022A0000E5F1F4FC430D10551F78F2DDF91CF91B5
:1022B0001F910F91FF900895FF920F931F93CF935B
:1022C000DF93F62E8C01C0E0D0E0F801A281B3814B
:1022D000109749F0ED91FC9111970088F189E02D5C
:1022E000CD016F2D199521960E5F1F4FC430D1057A
:1022F00061F7DF91CF911F910F91FF90089524E135
:1023000030E0FC01218B328B0895FC018089882309
:1023100061F0A281B381109741F0ED91FC9111978A
:102320000488F589E02DCD01199508950F931F9329
:10233000CF93DF93BC016C5E7F4F8C01C0E0D0E097
:10234000F801A281B381109749F0ED91FC911197AA
:10235000008CF18DE02DCD011995BC0121960E5F09
:102360001F4FC430D10561F7DF91CF911F910F91BD
:10237000089508950E94851108950895CF92DF92DF
:10238000EF92FF920F931F93DF93CF93CDB7DEB7FA
:10239000E297CDBFDEBF7C0188E890E0E80EF91E31
:1023A000D7012D913C91E8E7FFEFEE0EFF1E243B95
:1023B000310529F44CEDC42E4AE0D42E11C040E082
:1023C00050E060E271EA87E090E00E94964969017E
:1023D000FDEF293E3F0720F038EEC32E3DEFD32E10
:1023E00080912A2690912B26892B11F100D000D0C4
:1023F000EDB7FEB731968E010F5F1F4FADB7BEB779
:1024000011960D931C93129789EC91E2828393832A
:10241000C482D5820E94C34BEDB7FEB73696EDBF9E
:10242000FEBF80912A2690912B26B8010E94582940
:1024300082E890E0E80EF91ED7018D919C910097FB
:1024400019F0B6010E94FB32E296CDBFDEBFCF91FC
:10245000DF911F910F91FF90EF90DF90CF90089543
:10246000AF92BF92CF92DF92EF92FF920F931F93A2
:10247000DF93CF93CDB7DEB7E297CDBFDEBF7C0150
:102480006A307105C8F428E830E0E20EF31E8AE0F5
:1024900090E0D7018D939C93E8E7FFEFEE0EFF1ECF
:1024A000870168E8A62EB12CAE0CBF1C58E0C52EE3
:1024B000D12CCE0CDF1C0EC0FC01E857FF4F693C4D
:1024C000710528F088EC90E080839183E9CF6083E8
:1024D0007183E6CFF801A281B381109761F08D91ED
:1024E0009C911197F50160817181FC0122813381FA
:1024F000CD01F90119950E5F1F4F0C151D0551F700
:1025000080912A2690912B26892B69F100D000D04A
:10251000EDB7FEB731968E010F5F1F4FADB7BEB757
:1025200011960D931C9312978AED91E28283938307
:1025300028E830E0E20EF31ED7018D919C9128E748
:102540003FEFE20EF31E848395830E94C34B8DB749
:102550009EB706968DBF9EBF80912A2690912B260E
:10256000B8010E945829F701E657FF4FA8E8B0E0EC
:10257000EA0EFB1ED7016D917C9128E73FEFE20E3A
:10258000F31E88EB9BE00E944D4980E090E0608361
:10259000718382839383C7010E94BE11E296CDBFEF
:1025A000DEBFCF91DF911F910F91FF90EF90DF90F1
:1025B000CF90BF90AF900895EF92FF920F931F932B
:1025C0008C01CB0172E8E72EF12CE00EF11EF70131
:1025D0008083918365E00E94B632C8010E94BE11DB
:1025E000F7018081918160E00E94BC32F701808117
:1025F000918160E00E94C732F7018081918160E0A3
:1026000040E00E94D032F7018081918160E041E09A
:102610000E94D732F7018081918160E00E94E6320A
:10262000F70180819181B80140E00E945A331F91E7
:102630000F91FF90EF900895CF92DF92EF92FF926B
:102640000F931F93CF93DF93EC01F4E1CF2ED12CA6
:10265000C80ED91E7C01B60100E010E0F701A2818E
:10266000B381109749F0ED91FC911197008CF18D99
:10267000E02DCD011995BC010F5F1F4F82E090E066
:10268000E80EF91E0430110549F7062F0C1983E5F1
:102690008093B4268EE48093B52680E58093B62699
:1026A00087EB8093B7268B898093B8268F5F8B8BBF
:1026B0000093B926EAEBEE2EE6E2FE2EC701B60144
:1026C000402F50E00E94374B10E0F801EC54F94DD8
:1026D000898986838FEA87838AE58087C801835446
:1026E000994D61EF71E20E945B4BCC57DF4FE8815F
:1026F000F981A081B181035F1F4F14962D913C9108
:102700001597CF01B70166507040A801F9011995DE
:10271000DF91CF911F910F91FF90EF90DF90CF90BD
:102720000895CF93DF93EC0188898230C1F0833024
:1027300018F58130A9F5CE010E943511882361F08A
:102740000E94E03AC257DF4F688379838A839B8374
:10275000CE58D04082E023C00E94E03A21C0CE0192
:102760000E94240F89899A89009769F00197898BC3
:102770009A8BCE0160E010C0CE010E94240F89899F
:102780009A89009721F4CE010E94961107C0019703
:10279000898B9A8BCE0161E00E941C1381E0888BAB
:1027A00080E090E0DF91CF9108951F93CF93DF9366
:1027B000EC01162F8889882319F0CE010E9465103C
:1027C000CE01612F0E945C11CE010E941B109C0162
:1027D00097FD26C0CE010E9440109C0197FD20C0AD
:1027E000CE010E944A0F1E861B8A84E190E0898BED
:1027F0009A8B81E0888BCA57DF4F88819981C658B0
:10280000D040009719F061E00E947D200E94E03ADC
:10281000C257DF4F688379838A839B8320E030E04F
:10282000C901DF91CF911F910895FC0180819181B1
:1028300084839583828393830895FC0184819581A9
:10284000228133818217930711F480E008952817BD
:10285000390728F4821B930B959587950895281BBB
:10286000390B359527958681821B08950F931F9309
:102870008C010E941D1440E090E0F801268130E0B8
:10288000215030408217930709F441E0842F1F91B3
:102890000F910895FC0140E022813381848195816C
:1028A0002817390709F441E0842F0895FC01DB0162
:1028B00022813381848195812817390711F48FEFA4
:1028C00008952D933C932E5F3F4F228333834081A5
:1028D0005181241B350B35952795868190E028176B
:1028E000390711F080E008954283538380E0089512
:1028F0000F931F93CF93DF93EC018B010E9436144B
:10290000882311F08FEF24C0EC81FD813296EC8397
:10291000FD83B291A291F8012081318111962F5F40
:102920003F4F80E1F90101909F010D928150D1F755
:10293000488159812C813D81241B350B3595279584
:102940008E8190E02817390711F44C835D8380E075
:10295000DF91CF911F910F9108950F931F93CF9304
:10296000DF93EC018B010E943614882311F08FEF66
:1029700024C0EC81FD813296EC83FD83B291A2915B
:10298000F8012081318111962F5F3F4F80E1F901DD
:1029900001909F010D928150D1F7488159812C817E
:1029A0003D81241B350B359527958E8190E02817A6
:1029B000390711F44C835D8380E0DF91CF911F9143
:1029C0000F9108950F931F938C01862FF801668352
:1029D00090E0880F991F0E94E849F8018083918355
:1029E00084839583828393831F910F9108950F931E
:1029F0001F938C01862FF801668390E0880F991F42
:102A00000E94E849F80180839183848395838283BF
:102A100093831F910F9108950F93DF93CF930F929C
:102A2000CDB7DEB72FB72983F894FC0108ED04BFBA
:102A3000608389818FBF0F90CF91DF910F910895AF
:102A400087E08093500024E630E04AE050E02150D7
:102A5000304031F18091510090E087709070892B67
:102A6000F9F4CA010197F1F7F2CF809150008F7EFF
:102A70008093500080E9858380915000806180932D
:102A800050008091510084FFFCCF98ED94BF83E00B
:102A9000E0E4F0E0818394BF84E0809340000895F7
:102AA000E0E5F0E0168281E08093600080936800AA
:102AB0008091510090E083709070892BB1F6089559
:102AC0006F927F928F929F92AF92BF92CF92DF923E
:102AD000EF92FF920F931F93DF93CF9300D000D01C
:102AE000CDB7DEB76C01782E6D2C0E94501A88236A
:102AF00009F457C3C6010E945A197C016AE072E2C8
:102B00000E94524B009709F040C0C6010E945E1916
:102B1000823008F4D9C01B82C60160E0AE014D5F6F
:102B20005F4F0E94DC19C60161E0AE014E5F5F4F4E
:102B30000E94DC19EB81E43008F02FC3F0E0EE0FC7
:102B4000FF1FEC0DFD1D81A192A16A810E949E28AC
:102B5000282F332727FD30952115310531F4F60153
:102B6000808191816EE272E216C300D000D0EDB791
:102B7000FEB7319603EB17E2ADB7BEB711960D93D2
:102B80001C93129787E392E2E6C0C70165E472E204
:102B90000E94524B0097E9F48FEF9FEF8B839C8349
:102BA000C6010E945E19882339F0C60160E0AE01BB
:102BB0004D5F5F4F0E94C319F601608171814B81A7
:102BC0005C8181A592A50E94FA10D6018D919C91FD
:102BD000C6C1C70162E572E20E94524B009709F03C
:102BE00066C0C6010E945E19843020F4F60180811F
:102BF00091816DC01A82C60160E0AE014E5F5F4FE9
:102C00000E94DC19C60161E0AE014D5F5F4F0E947A
:102C1000DC19C6010E945E1990E00E94E849B82EB6
:102C2000A92E9C01790102E010E075E0872E912C1D
:102C30008C0E9D1E0CC0872D962D602FA4010E9426
:102C4000DC198D81D7018D937D010F5F1F4F872D7B
:102C5000962D0E945E1990E00817190764F3EA8127
:102C6000F0E0EE0FFF1FEC0DFD1D01A112A1FB8096
:102C7000872D962D0E945E19282F2250C8016F2D96
:102C80004B2D5A2D0E948928F6012081318187FF22
:102C900004C0C90168E572E203C0C9016DE572E2D2
:102CA0000E94D42A8B2D9A2D0E94954A76C2C70184
:102CB00060E672E20E94524B009709F09DC0C60187
:102CC0000E945E19843030F4D6018D919C9162E1AE
:102CD00072E261C21D82C60160E0AE014B5F5F4FD0
:102CE0000E94DC19C60161E0AE014D5F5F4F0E949A
:102CF000DC19C60162E08E010F5F1F4FA8010E9420
:102D0000DC19C60163E0AE014E5F5F4F0E94DC1923
:102D1000ED81F0E0EE0FFF1FEC0DFD1D81A192A1F2
:102D20006B81A80121E00A810E944A28282F3327BD
:102D300027FD309503EB17E237FF12C000D000D01B
:102D4000EDB7FEB73196ADB7BEB711960D931C9394
:102D5000129786E692E2828393832483358310C29E
:102D6000C8016FE672E20E945B4B43E0E42EF12C57
:102D7000E00EF11E00E010E033E7A32E32E2B32EA6
:102D800025C0ED81F0E0EE0FFF1FEC0DFD1D81A1D0
:102D900092A1602F0E943C2100D000D0EDB7FEB779
:102DA0003196ADB7BEB71196ED92FC921297A28202
:102DB000B382848315820E94C34BE80EF91E0F5F15
:102DC0001F4FEDB7FEB73696EDBFFEBFED81F0E0C9
:102DD000EE0FFF1FEC0DFD1D81A192A10E944F215E
:102DE00090E0081719076CF2D6018D919C9163EB66
:102DF00077E20E94D42AD1C1C70169E772E20E943A
:102E0000524B009729F51B821C82C6010E945E1955
:102E1000882339F0C60160E0AE014D5F5F4F0E942C
:102E2000F419F60121A532A560E08B819C81019700
:102E300009F461E0C9010E94D5139C0197FF8CC081
:102E400000D000D0EDB7FEB7319603EB17E27BCF91
:102E5000C70165E872E20E94524B009741F4D60127
:102E600099968D919C919A970E94651075C0C701A3
:102E700060E972E20E94524B009741F4D6019996A4
:102E80008D919C919A970E947F1187C1C70163E938
:102E900072E20E94524B009779F4C60160E0AE01E5
:102EA0004F5F5F4F0E94DC1980912C2690912D2658
:102EB00069810E947D2050C0C7016BE972E20E94C7
:102EC000524B009741F4D60199968D919C919A9717
:102ED0000E94DB1055C0C7016BEA72E20E94524BA0
:102EE000009709F03FC08C2D9D2D0E945E19843003
:102EF00030F4D6018D919C9162EB72E24CC18C2D25
:102F00009D2D60E0AE014F5F5F4F0E94DC198C2D5C
:102F10009D2D61E0AE014B5F5F4F0E94F4198C2D37
:102F20009D2D62E0AE014E5F5F4F0E94DC198C2D3B
:102F30009D2D63E0AE014D5F5F4F0E94DC19E9817A
:102F4000F0E0EE0FFF1FEC0DFD1D81A192A16D8140
:102F50004A812B810E940722F601808191816EE4D3
:102F600072E219C1C7016CEC72E20E94524B0097E9
:102F700061F4D60199968D919C919A970E94951033
:102F800083EB97E26EE472E2B1C0C70162ED72E2D8
:102F90000E94524B009741F4D60199968D919C91D5
:102FA0009A970E94BC10ECCFC7016BED72E20E94B1
:102FB000524B009739F58C2D9D2D60E0AE014B5F93
:102FC0005F4F0E94F4196D817E81D60199968D9193
:102FD0009C919A970E94301200D000D0EDB7FEB7B6
:102FE000319603EB17E2ADB7BEB711960D931C9364
:102FF000129780EE92E2828393838D819E818483F7
:103000009583BEC0C70167EE72E20E94524B0097E3
:1030100049F48C2D9D2D60E0AE014B5F5F4F0E9407
:10302000F419AECFC7016FEE72E20E94524B0097C7
:10303000A1F400D000D0EDB7FEB7319603EB17E254
:10304000ADB7BEB711960D931C93129780EE92E226
:10305000828393831482158293C0C70167EF72E263
:103060000E94524B009701F52091A6093091A709C3
:10307000EDB7FEB73897EDBFFEBF319603EB17E211
:10308000ADB7BEB711960D931C93129781E093E2F2
:103090008283938324831582368317820E94C34BD5
:1030A000EDB7FEB7389671C0C7016FE073E20E94BA
:1030B000524B009719F58C2D9D2D60E0AE014B5FB2
:1030C0005F4F0E94F4198D819E8120912A263091B4
:1030D0002B26892B19F0C90161E002C0C90160E00B
:1030E0000E94E81F83EB97E265E173E20E945B4B6D
:1030F000F6018081918163EB77E24DC0C7016AE1FF
:1031000073E20E94524B009741F58C2D9D2D60E09B
:10311000AE014B5F5F4F0E94F4198D819E81D601F5
:103120002D913C91892B59F0C9010E94751FF60120
:103130008081918143E459E767E070E00AC0C901EA
:103140000E94751FD6018D919C9140E052EC61E088
:1031500070E020E00E947C1E20C000D000D0EDB7BF
:10316000FEB7319603EB17E2ADB7BEB711960D93DC
:103170001C9312978FE193E282839383E482F5821A
:103180000E94C34BEDB7FEB73696EDBFFEBFD6012A
:103190008D919C91B8010E945829872D962D0E94EF
:1031A00055192696CDBFDEBFCF91DF911F910F91AC
:1031B000FF90EF90DF90CF90BF90AF909F908F9057
:1031C0007F906F9008950E94371B08950E94371BCF
:1031D0000895CF92DF92EF92FF920F931F938C018D
:1031E0007A0169010E94F31AF70180819181F80147
:1031F00081A392A3F7018081918188569F4FF801A6
:1032000083A394A3F70180819181805D9E4FF80193
:1032100085A396A3F7018081918188539E4FF80181
:1032200087A390A7C1A6D2A61F910F91FF90EF9000
:10323000DF90CF900895CF92DF92EF92FF920F939D
:103240001F938C017A0169010E94F31AF7018081B2
:103250009181F80181A392A3F70180819181885621
:103260009F4FF80183A394A3F70180819181805D32
:103270009E4FF80185A396A3F70180819181885321
:103280009E4FF80187A390A7C1A6D2A61F910F91C8
:10329000FF90EF90DF90CF900895FC01848D958D85
:1032A0000895FC01868D978D0895FC01128E138E72
:1032B00010A20895FC01868997890895FC0180A1D8
:1032C0000895CF93DF93DC01EA0190968C9190975B
:1032D000681778F4E62FF0E03196EE0FFF1FEA0F43
:1032E000FB1F6081718188819981422F50E00E948B
:1032F000624BDF91CF910895CF93DF93EC0188A1CA
:10330000681718F500D000D0ADB7BEB71196E62FFC
:10331000F0E03196EE0FFF1FEC0FFD1F80819181D1
:10332000EDB7FEB7818392838FE393E212968D937C
:103330009C93139714964D935C9315970E94EE4BB4
:103340008DB79EB706968DBF9EBFDF91CF91089532
:10335000CF93DF93DC01EA0190968C9190976817E8
:1033600078F4E62FF0E03196EE0FFF1FEA0FFB1F17
:10337000808191810E940B4B688379838A839B8330
:10338000DF91CF910895CF93DF93DC01EA0190960E
:103390008C919097681768F4E62FF0E03196EE0F65
:1033A000FF1FEA0FFB1F808191810E94ED4A8883F5
:1033B0009983DF91CF910895CF93DF93DC01EA01E8
:1033C00090968C919097681760F4E62FF0E0319614
:1033D000EE0FFF1FEA0FFB1F808191810E94ED4AD3
:1033E0008883DF91CF910895CF93DF93DC01EA01C9
:1033F00090968C919097681768F4E62FF0E03196DC
:10340000EE0FFF1FEA0FFB1F808191810E94ED4AA2
:1034100088839983DF91CF910895EF92FF920F9364
:103420001F93CF93DF93EC01088D198DEE8CFF8CE9
:10343000C801B7010E94714B009731F1C801B70173
:103440000E94324B8E8B9F8B6E8D7F8D80E090E043
:103450000E94324B7E0100E010E012C0F70182832F
:1034600093830F5F1F4F6E8D7F8D80E090E00E94F1
:10347000324B22E030E0E20EF31E0A30110511F06B
:10348000009761F708A303C00E8B1F8B18A281E081
:103490008B8FDF91CF911F910F91FF90EF90089547
:1034A0001F93CF93DF93EC0122C0888199810E9402
:1034B000A81F182F8C8D9D8D612F70E00E94474BA7
:1034C0009C018A8D232B61F0882389F0E88DF98D8A
:1034D000E80FF11D1082CE010E940D1A81E00DC08F
:1034E000E88DF98DE80FF11D10838F5F8A8F888139
:1034F00099810E94941F8823C1F6DF91CF911F917B
:103500000895EF92FF920F931F938C01F62EE72EF2
:10351000FC01868D978D0E94954AEF2DFE2DDF01CF
:103520000D900020E9F7CD018E1B9F0B0E94E8490A
:10353000F801868F978F6F2D7E2D0E945B4B1F9118
:103540000F91FF90EF900895EF92FF920F931F93CA
:103550008C01F62EE72EFC01848D958D0E94954AF4
:10356000EF2DFE2DDF010D900020E9F7CD018E1B20
:103570009F0B0E94E849F801848F958F6F2D7E2D57
:103580000E945B4B1F910F91FF90EF9008950F9356
:103590001F938C01FC016083718380E890E00E949E
:1035A000E849F801808F918F168A178A83E090E0AE
:1035B0000E94E849F801848F958F63E473E20E94CA
:1035C0005B4B83E090E00E94E849F801868F978F7B
:1035D00066E473E20E945B4BF801128E138E10A218
:1035E0001F910F9108950F931F938C01FC0160832D
:1035F000718380E890E00E94E849F801808F918F04
:10360000168A178A83E090E00E94E849F801848FC7
:10361000958F63E473E20E945B4B83E090E00E942D
:10362000E849F801868F978F66E473E20E945B4B4E
:10363000F801128E138E10A21F910F910895CF934F
:10364000DF93EC0188819981009711F00E94751F2A
:10365000888D998D0E94954A8E8D9F8D0E94954AE6
:103660008C8D9D8D0E94954ADF91CF910895CF93C7
:10367000DF93EC0188819981009711F00E94751FFA
:10368000888D998D0E94954A8E8D9F8D0E94954AB6
:103690008C8D9D8D0E94954ADF91CF9108951F9248
:1036A0000F920FB60F9208B60F92112418BE0F900A
:1036B00008BE0F900FBE0F901F9018951F920F928B
:1036C0000FB60F9208B60F92112418BE0F9008BEC5
:1036D0000F900FBE0F901F9018951F920F920FB66C
:1036E0000F9208B60F92112418BE0F9008BE0F90CB
:1036F0000FBE0F901F9018951F920F920FB60F924A
:1037000008B60F92112418BE0F9008BE0F900FBE7E
:103710000F901F9018951F920F920FB60F9208B638
:103720000F92112418BE0F9008BE0F900FBE0F907D
:103730001F9018951F920F920FB60F9208B60F9216
:10374000112418BE0F9008BE0F900FBE0F901F904F
:1037500018951F920F920FB60F9208B60F92112470
:1037600018BE0F9008BE0F900FBE0F901F901895B7
:103770001F920F920FB60F9208B60F92112418BE27
:103780000F9008BE0F900FBE0F901F9018951F92BC
:103790000F920FB60F9208B60F92112418BE0F9019
:1037A00008BE0F900FBE0F901F9018951F920F929A
:1037B0000FB60F9208B60F92112418BE0F9008BED4
:1037C0000F900FBE0F901F9018951F920F920FB67B
:1037D0000F9208B60F92112418BE0F9008BE0F90DA
:1037E0000FBE0F901F9018951F920F920FB60F9259
:1037F00008B60F92112418BE0F9008BE0F900FBE8E
:103800000F901F9018951F920F920FB60F9208B647
:103810000F92112418BE0F9008BE0F900FBE0F908C
:103820001F9018951F920F920FB60F9208B60F9225
:10383000112418BE0F9008BE0F900FBE0F901F905E
:1038400018951F920F920FB60F9208B60F9211247F
:1038500018BE0F9008BE0F900FBE0F901F901895C6
:103860001F920F920FB60F9208B60F92112418BE36
:103870000F9008BE0F900FBE0F901F90189528E074
:10388000803A920729F46093B32B7093B42B089578
:1038900028E0803B920729F46093B52B7093B62BF8
:1038A000089529E0803A920729F46093B72B70932A
:1038B000B82B089529E0803B920729F46093B92B37
:1038C0007093BA2B08952AE0803A920729F4609306
:1038D000BB2B7093BC2B08952AE0803B920729F400
:1038E0006093BD2B7093BE2B08952BE0803A920716
:1038F00029F46093BF2B7093C02B0895805B9B408D
:1039000021F46093C12B7093C22B08950F931F93E2
:10391000CF93DF93FC01A481B5814C910280F381A8
:10392000E02D8F0100581F4FD801CD91DC91CE01C1
:10393000019660E870E00E9461499C01EE57FF4FDC
:1039400080819181E258F0402817390731F0EC0F5F
:10395000FD1F4083F80120833183DF91CF911F91B8
:103960000F9108951F920F920FB60F9208B60F9203
:1039700009B60F920BB60F92112418BE19BE1BBECA
:103980002F933F934F935F936F937F938F939F9367
:10399000AF93BF93EF93FF938091C12B9091C22B74
:1039A000009711F00E94861CFF91EF91BF91AF919B
:1039B0009F918F917F916F915F914F913F912F9147
:1039C0000F900BBE0F9009BE0F9008BE0F900FBE58
:1039D0000F901F9018951F920F920FB60F9208B676
:1039E0000F9209B60F920BB60F92112418BE19BE92
:1039F0001BBE2F933F934F935F936F937F938F9350
:103A00009F93AF93BF93EF93FF938091BF2B9091C0
:103A1000C02B009711F00E94861CFF91EF91BF917F
:103A2000AF919F918F917F916F915F914F913F9156
:103A30002F910F900BBE0F9009BE0F9008BE0F90F4
:103A40000FBE0F901F9018951F920F920FB60F92F6
:103A500008B60F9209B60F920BB60F92112418BE3A
:103A600019BE1BBE2F933F934F935F936F937F932A
:103A70008F939F93AF93BF93EF93FF938091BD2B51
:103A80009091BE2B009711F00E94861CFF91EF9140
:103A9000BF91AF919F918F917F916F915F914F9166
:103AA0003F912F910F900BBE0F9009BE0F9008BE53
:103AB0000F900FBE0F901F9018951F920F920FB688
:103AC0000F9208B60F9209B60F920BB60F921124FF
:103AD00018BE19BE1BBE2F933F934F935F936F93F6
:103AE0007F938F939F93AF93BF93EF93FF938091B7
:103AF000BB2B9091BC2B009711F00E94861CFF916C
:103B0000EF91BF91AF919F918F917F916F915F9155
:103B10004F913F912F910F900BBE0F9009BE0F90C8
:103B200008BE0F900FBE0F901F9018951F920F9216
:103B30000FB60F9208B60F9209B60F920BB60F92FE
:103B4000112418BE19BE1BBE2F933F934F935F9352
:103B50006F937F938F939F93AF93BF93EF93FF9355
:103B60008091B92B9091BA2B009711F00E94861C7E
:103B7000FF91EF91BF91AF919F918F917F916F9145
:103B80005F914F913F912F910F900BBE0F9009BE07
:103B90000F9008BE0F900FBE0F901F9018951F92A8
:103BA0000F920FB60F9208B60F9209B60F920BB68E
:103BB0000F92112418BE19BE1BBE2F933F934F9333
:103BC0005F936F937F938F939F93AF93BF93EF9385
:103BD000FF938091B72B9091B82B009711F00E9422
:103BE000861CFF91EF91BF91AF919F918F917F9133
:103BF0006F915F914F913F912F910F900BBE0F905E
:103C000009BE0F9008BE0F900FBE0F901F90189521
:103C10001F920F920FB60F9208B60F9209B60F922D
:103C20000BB60F92112418BE19BE1BBE2F933F93E3
:103C30004F935F936F937F938F939F93AF93BF93B4
:103C4000EF93FF938091B52B9091B62B009711F0D5
:103C50000E94861CFF91EF91BF91AF919F918F9130
:103C60007F916F915F914F913F912F910F900BBE7C
:103C70000F9009BE0F9008BE0F900FBE0F901F90BF
:103C800018951F920F920FB60F9208B60F9209B6B1
:103C90000F920BB60F92112418BE19BE1BBE2F93A4
:103CA0003F934F935F936F937F938F939F93AF93C4
:103CB000BF93EF93FF938091B32B9091B42B009718
:103CC00011F00E94861CFF91EF91BF91AF919F91DF
:103CD0008F917F916F915F914F913F912F910F90B5
:103CE0000BBE0F9009BE0F9008BE0F900FBE0F9035
:103CF0001F901895089508959F92AF92BF92CF920A
:103D0000DF92EF92FF920F931F93CF93DF93EC011B
:103D10005A016B01922E2B874C875D876E877F87B8
:103D2000EE81FF8188858283EE81FF818985818391
:103D300027FD20C060E170E002C0660F771F2A9562
:103D4000E2F7882777FD8095982FA60195010E94BC
:103D500022490E9402469B01AC0160E074E284EFBC
:103D60009BE40E94F64420E030E040E85FE30E94DC
:103D70009E432FC0919461E070E0092C02C0660F51
:103D8000771F0A94E2F7882777FD8095982F0E9485
:103D900002467B018C01C601B5010E94024620E06B
:103DA00030E040E851E40E94FC439B01AC0160E03C
:103DB00074E284EF9BE40E94F64420E030E040E8A7
:103DC0005FE30E949E439B01AC01C801B7010E94C2
:103DD000FC430E942642EC81FD816683EC81FD81DB
:103DE00060707F70929480EF9822972A9782EC817E
:103DF000FD81848188618483EC81FD8180E18383FE
:103E0000EC81FD8183E085838C819D81BE010E94D0
:103E10003F1CDF91CF911F910F91FF90EF90DF90AA
:103E2000CF90BF90AF909F900895CF92DF92EF9286
:103E3000FF920F931F938C016A017B01DC011B969B
:103E40002C931B97FC0144875587668777870680EC
:103E5000F781E02D18968C91189782831696ED9134
:103E6000FC91179719968C91199781831496ED916F
:103E7000FC91159784818260848360E074E284EF12
:103E800090E0A70196010E94964921503040D80148
:103E90001496ED91FC91159726831496ED91FC9163
:103EA000159737831496ED91FC911597848188615D
:103EB00084831496ED91FC91159783818F7C8061AA
:103EC00083831496ED91FC91159783E08583149676
:103ED0008D919C911597B8010E943F1C1F910F91E5
:103EE000FF90EF90DF90CF9008950F931F938C0178
:103EF000DC0114968D919C91159760E070E00E9412
:103F00003F1CD8011496ED91FC9115978481877E12
:103F100084831496ED91FC91159783818F7C806149
:103F200083831F910F910895DC011296ED91FC910E
:103F30001397E058FF4F8191919180589F4F2081B6
:103F40003181821B930B60E870E00E946149089503
:103F5000CF93DF93DC011296ED91FC911397EF0163
:103F6000CE57DF4F48815981E058FF4F80819181C2
:103F7000E058F0408417950719F42FEF3FEF0CC07D
:103F8000E40FF51F2081CA01019660E870E00E94ED
:103F900061498883998330E0C901DF91CF91089509
:103FA000DC011296ED91FC911397EE57FF4F808143
:103FB0009181929382930895FC018089882339F03E
:103FC0000480F581E02D818185FFFDCF6083089518
:103FD000FC01608B08950F931F938C018DE493E295
:103FE000F80180839183C8010E94751FF8018281C6
:103FF00093810E94954AF801128213821F910F91BA
:1040000008950F931F938C018DE493E2F801808350
:104010009183C8010E94751FF801828193810E94DB
:10402000954AF801128213821F910F910895AF9261
:10403000BF92CF92DF92EF92FF920F931F937C017A
:104040006B015A01122F8DE493E2F7018083918373
:1040500084E890E00E94E849F70182839383C48258
:10406000D582A682B782108701871286138680E8E0
:1040700095E2A0E0B0E084879587A687B78781E0C6
:10408000808B1F910F91FF90EF90DF90CF90BF90AA
:10409000AF900895AF92BF92CF92DF92EF92FF92CE
:1040A0000F931F937C016B015A01122F8DE493E251
:1040B000F7018083918384E890E00E94E849F7014A
:1040C00082839383C482D582A682B78210870187B8
:1040D0001286138680E895E2A0E0B0E08487958799
:1040E000A687B78781E0808B1F910F91FF90EF909B
:1040F000DF90CF90BF90AF900895FC01A081B18177
:1041000014963C9114972581862F90E0078002C079
:10411000880F991F0A94E2F7822320952323822B8C
:1041200014968C9366830895CF92DF92EF920F934B
:104130006C01FC016583478340E020E000E0EE2451
:104140000E94BE2FC601F60165810E94742FC60130
:10415000F60165810E94802FF60116820F91EF9083
:10416000DF90CF9008950F931F938C010E94F72B3F
:10417000F8011582168217821F910F9108950F93EF
:104180001F938C010E94F72BF8011582168217826B
:104190001F910F9108951F920F920FB60F9208B6BC
:1041A0000F92112418BE0F9008BE0F900FBE0F90F3
:1041B0001F9018951F920F920FB60F9208B60F928C
:1041C000112418BE0F9008BE0F900FBE0F901F90C5
:1041D00018951F920F920FB60F9208B60F921124E6
:1041E00018BE0F9008BE0F900FBE0F901F9018952D
:1041F0001F920F920FB60F9208B60F92112418BE9D
:104200000F9008BE0F900FBE0F901F90189524E0DE
:104210008038920729F46093C32B7093C42B0895C0
:1042200024E08039920729F46093C52B7093C62B44
:10423000089524E0803B920729F46093C72B709384
:10424000C82B0895805A944021F46093C92B709331
:10425000CA2B0895FC01618772870895FC010190C3
:10426000F081E02D8DEC84830895FC010190F081B4
:10427000E02D848183700895FC018581882369F491
:104280008681882351F48785681738F40388F48978
:10429000E02DE60FF11D8081089580E00895FC0176
:1042A00087850895FC018581811181E00895FC01D5
:1042B000878190850895FC0127813085211531057E
:1042C00021F46783708781E0089580E0261737071F
:1042D00009F481E00895FC0185810895FC0186813F
:1042E0000895FC010190F081E02D83E0838308951F
:1042F000DC01ED91FC91119728EE33E09AE0848186
:104300008370813009F47FC0892F8A95F1F721509D
:10431000304009F476C0F3CF418195E1892F8A9529
:10432000F1F711821296ED91FC91139783E081834E
:104330001296ED91FC911397858385E38A95F1F7A9
:104340001296ED91FC911397808580FD0AC0ED9146
:10435000FC9111974183ED91FC9181E0848389EF79
:104360000895808581FD0AC0ED91FC9111974183EC
:10437000ED91FC9181E0848388EF089581E086834C
:10438000892F8A95F1F71296ED91FC91139782E0AF
:10439000868320E030E050E292E060E2852F8A954B
:1043A000F1F71296ED91FC9113979583852F8A95DD
:1043B000F1F71296ED91FC91139796832F5F3F4F83
:1043C0002930310551F7862F8A95F1F71296ED9134
:1043D000FC91139782E08583862F8A95F1F71296D8
:1043E000ED91FC91139781E0858395E19A95F1F722
:1043F000ED91FC9111974183ED91FC91848380E0D4
:1044000008958AEF0895232B09F086CFFACF1F93E2
:10441000CF93DF93DC01CD91DC911197E8EEF3E0CF
:104420009AE08C818370813009F473C0892F8A955A
:10443000F1F7319709F468C0F4CF598119821296C7
:10444000ED91FC91139783E0858385E38A95F1F7DD
:104450001296ED91FC911397808580FD0AC0ED9135
:10446000FC9111975183ED91FC9181E0848389EF58
:104470004CC0808581FD0AC0ED91FC91119751835C
:10448000ED91FC9181E0848388EF3FC0413011F4CD
:1044900032E002C042E031E0222321F4468385E18C
:1044A0008A95F1F780E090E070E010E20DC0212FD6
:1044B0002A95F1F73583212F2A95F1F71296ED9180
:1044C000FC911397368301961296ED91FC91139708
:1044D0008617970764F380E2982F9A95F1F7358352
:1044E0008A95F1F71296ED91FC911397458385E13A
:1044F0008A95F1F7ED91FC9111975183ED91FC9123
:1045000081E0848380E001C08AEFDF91CF911F9129
:104510000895EF2B09F091CFF7CFCF93DF93DC0114
:10452000CD91DC9111978C8184FF16C083E08B8341
:1045300084E016968C93169715961C9215971996EB
:104540000D90BC91A02D1097F1F1ED91FC91119778
:104550000084F185E02D35C01C969C911C971D961A
:104560008C911D97981760F45096ED91FC9151979E
:10457000E90FF11D80819F5F1C969C938F8323C060
:104580001F969C911F971E968C911E97981728F442
:104590001B968C9181608E8316C083E08B83169668
:1045A0001C92169715961C92159719960D90BC9112
:1045B000A02D109741F0ED91FC9111970190F081A1
:1045C000E02DCD011995DF91CF910895DC011F9663
:1045D0009C911F9755968C915597ED91FC91119751
:1045E000981788F587815396ED91FC915497E90FC0
:1045F000F11D80831F968C911F978F5F1F968C9360
:104600001F971E969C911E97ED91FC91119789170B
:1046100018F482E08383089587E0838316961C92C2
:10462000169715961C92159719960D90BC91A02D72
:10463000109701F1ED91FC9111970280F381E02D2B
:10464000CD011995089587E0838315961C921597DF
:1046500085E016968C93169719960D90BC91A02D17
:10466000109741F0ED91FC9111970280F381E02DBC
:10467000CD0119950895FC01A081B18114968C910A
:104680001497886014968C93158282E08683A185A6
:10469000B285109741F0ED91FC9111970680F7815A
:1046A000E02DCD0119950895FC01A081B1811496EA
:1046B0008C911497846014968C93A081B18187E0CB
:1046C00013968C93158283E08683A185B28510971B
:1046D00041F0ED91FC9111970480F581E02DCD0121
:1046E000199508950F931F93CF93DF93EC01E88101
:1046F000F9810481102F02FF0CC006FF08C0802F33
:10470000837184608483CE010E948D2202C00E9446
:10471000542313FF03C0CE010E943B2316FF03C0A6
:10472000CE010E948D2207FF03C0CE010E94E62227
:10473000DF91CF911F910F9108951F920F920FB6A5
:104740000F9208B60F9209B60F920BB60F92112472
:1047500018BE19BE1BBE2F933F934F935F936F9369
:104760007F938F939F93AF93BF93EF93FF9380912A
:10477000C72B9091C82B009711F00E947223FF91D4
:10478000EF91BF91AF919F918F917F916F915F91C9
:104790004F913F912F910F900BBE0F9009BE0F903C
:1047A00008BE0F900FBE0F901F9018951F920F928A
:1047B0000FB60F9208B60F9209B60F920BB60F9272
:1047C000112418BE19BE1BBE2F933F934F935F93C6
:1047D0006F937F938F939F93AF93BF93EF93FF93C9
:1047E0008091C52B9091C62B009711F00E947223E7
:1047F000FF91EF91BF91AF919F918F917F916F91B9
:104800005F914F913F912F910F900BBE0F9009BE7A
:104810000F9008BE0F900FBE0F901F9018951F921B
:104820000F920FB60F9208B60F9209B60F920BB601
:104830000F92112418BE19BE1BBE2F933F934F93A6
:104840005F936F937F938F939F93AF93BF93EF93F8
:10485000FF938091C92B9091CA2B009711F00E9471
:104860007223FF91EF91BF91AF919F918F917F91B3
:104870006F915F914F913F912F910F900BBE0F90D1
:1048800009BE0F9008BE0F900FBE0F901F90189595
:104890001F920F920FB60F9208B60F9209B60F92A1
:1048A0000BB60F92112418BE19BE1BBE2F933F9357
:1048B0004F935F936F937F938F939F93AF93BF9328
:1048C000EF93FF938091C32B9091C42B009711F02D
:1048D0000E947223FF91EF91BF91AF919F918F91B1
:1048E0007F916F915F914F913F912F910F900BBEF0
:1048F0000F9009BE0F9008BE0F900FBE0F901F9033
:1049000018950895EF92FF920F931F93DF93CF9323
:10491000CDB7DEB7C058D040CDBFDEBF8C01DC01C3
:10492000ED91FC91218100D000D0EDB7FEB731961A
:104930007E010894E11CF11CADB7BEB71196ED9253
:10494000FC92129783E593E28283938324831582FA
:104950000E94C34B80912A2690912B262DB73EB7FB
:104960002A5F3F4F2DBF3EBF009719F0B7010E944D
:10497000D42AD801ED91FC91228100D000D0EDB76E
:10498000FEB731967E010894E11CF11CADB7BEB7AD
:104990001196ED92FC9212978EE593E282839383B7
:1049A000248315820E94C34B80912A2690912B2646
:1049B0002DB73EB72A5F3F4F2DBF3EBF009719F07E
:1049C000B7010E94D42AD801ED91FC91238100D037
:1049D00000D0EDB7FEB731967E010894E11CF11CC2
:1049E000ADB7BEB71196ED92FC92129789E693E2AD
:1049F00082839383248315820E94C34B80912A264D
:104A000090912B262DB73EB72A5F3F4F2DBF3EBF5B
:104A1000009719F0B7010E94D42AD801ED91FC91BA
:104A2000258100D000D0EDB7FEB731967E01089405
:104A3000E11CF11CADB7BEB71196ED92FC92129736
:104A400084E793E282839383248315820E94C34B7D
:104A500080912A2690912B262DB73EB72A5F3F4F93
:104A60002DBF3EBF009719F0B7010E94D42AD8018C
:104A7000ED91FC91248100D000D0EDB7FEB73196C6
:104A80007E010894E11CF11CADB7BEB71196ED9202
:104A9000FC9212978EE793E282839383248315829C
:104AA0000E94C34B80912A2690912B262DB73EB7AA
:104AB0002A5F3F4F2DBF3EBF009719F0B7010E94FC
:104AC000D42AD801ED91FC91208500D000D0EDB71B
:104AD000FEB731968E010F5F1F4FADB7BEB711966F
:104AE0000D931C9312978AE893E282839383248325
:104AF00015820E94C34B80912A2690912B262DB7B8
:104B00003EB72A5F3F4F2DBF3EBF009719F0B80157
:104B10000E94D42AC058DF4FCDBFDEBFCF91DF91B6
:104B20001F910F91FF90EF900895FC010190F0818B
:104B3000E02D84818370813081F0813028F08230D3
:104B4000A9F0833041F51DC080912A2690912B2633
:104B5000009709F16BE973E211C080912A269091C8
:104B60002B260097C1F060EB73E208C080912A26E3
:104B700090912B26009779F062EC73E20E94D42A80
:104B8000089580912A2690912B26009721F065EDBB
:104B900073E20E94D42A0895CF92DF92FF920F937E
:104BA0001F93DF93CF93CDB7DEB7C058D040CDBFB2
:104BB000DEBF8C01F62E00D000D0EDB7FEB73196E7
:104BC0006E010894C11CD11CADB7BEB71196CD9231
:104BD000DC92129787EE93E282839383648315823B
:104BE0000E94C34B80912A2690912B26EDB7FEB7E9
:104BF0003696EDBFFEBF009719F0B6010E94D42A89
:104C0000D801ED91FC9111978181877F8183ED918E
:104C1000FC91119783E28583ED91FC91119781813D
:104C200088608183ED91FC9181E08483C8010E94BA
:104C30009525C8010E948224BEEFFB22D801ED9188
:104C4000FC91F68295E0F92E80E2C82E83E0D82E02
:104C50000DC084E690E0F6013197F1F70197D9F79E
:104C6000C8010E949525C8010E948224FA9429F067
:104C7000F80185818823E1F0ECCF80912A2690917C
:104C80002B26009721F06BEF73E20E94D42AC80113
:104C90000E94952580E090E0C058DF4FCDBFDEBF79
:104CA000CF91DF911F910F91FF90DF90CF900895EA
:104CB000C8010E949525C8010E948224D801ED9167
:104CC000FC9183E08383C8010E949525C8010E945E
:104CD0008224DDCFFC018581823059F415828091D8
:104CE0002A2690912B26009721F065E074E20E941D
:104CF000D42A0895DC01ED91FC911197118214964C
:104D00001C9280912A2690912B26009721F068E131
:104D100074E20E94D42A08950F931F938C010E947D
:104D20007A26F8018081918160E070E00E9407217D
:104D30001F910F9108950F931F938C010E947A2663
:104D4000F8018081918160E070E00E9407211F914D
:104D50000F910895FF920F931F938C019A01AB015D
:104D6000DC01ED91FC9111971082ED91FC91FF24F3
:104D7000F394F482220F331F441F551F60E078E440
:104D800088EE91E00E9474492550D801ED91FC9184
:104D900011972583ED91FC9111978CE08283ED9121
:104DA000FC91119788E78183ED91FC911197F48232
:104DB0001496FC92149715961C92159716961C92B1
:104DC00080912A2690912B26009721F06FE274E2C1
:104DD0000E94D42A1F910F91FF900895DC016D93DA
:104DE0007C93119714961C92149715961C92159704
:104DF00016961C92169750961D921C925197539698
:104E00001D921C92549752961C92529755961C9242
:104E100055971B961C921B971C961C921C971D96CF
:104E20001C921D971E961C921E971F961C921F97F0
:104E300017961D921C92189719961D921C921A97FC
:104E4000A956BF4F1C92A759B04084E0603878073C
:104E500019F480E496E00FC084E06039780719F413
:104E600080E696E008C0605A744019F480E896E045
:104E700002C080EA96E012968D939C93139793E07C
:104E80009093B0001296ED91FC91139788E3808B7C
:104E90001296ED91FC91139791831296ED91FC91EE
:104EA000139795838D919C911197BD010E940721C5
:104EB00080912A2690912B26009721F068E474E2D5
:104EC0000E94D42A0895DC016D937C931197149667
:104ED0001C92149715961C92159716961C9216976D
:104EE00050961D921C92519753961D921C92549766
:104EF00052961C92529755961C9255971B961C924F
:104F00001B971C961C921C971D961C921D971E9613
:104F10001C921E971F961C921F9717961D921C920B
:104F2000189719961D921C921A97A956BF4F1C925A
:104F3000A759B04084E06038780719F480E496E01F
:104F40000FC084E06039780719F480E696E008C065
:104F5000605A744019F480E896E002C080EA96E056
:104F600012968D939C93139783E08093B0001296D2
:104F7000ED91FC91139798E3908B818385838D91BC
:104F80009C911197BD010E94072180912A26909142
:104F90002B26009721F068E474E20E94D42A089539
:104FA0001F93FC01262F972F8581882381F486810A
:104FB000882369F48785142F841708F4182F6389D0
:104FC0007489822F412F50E00E94374B01C010E0BE
:104FD000812F1F910895DF92EF92FF920F931F93FD
:104FE000CF93DF93EC01162FE42ED52EF22E8C8179
:104FF000882311F48FEF42C08D81882309F446C0C5
:105000008EEF3CC0888999890E94954A8F2D90E047
:1050100001960E94E849888B998BFA8A8889998938
:105020006E2D7D2D4F2D50E00E94374B1C86FD8646
:105030008D89801760F48B899C890E94954A802F06
:1050400090E001960E94E8498B8B9C8B0D8B1F860C
:105050000E8786E08E831B878D85882321F01E7F37
:10506000E881F98107C0E881F981002311F011601E
:1050700001C01E7F168381E08D8380E0DF91CF9198
:105080001F910F91FF90EF90DF9008958A8982170A
:1050900028F6B8CF0F93CF93DF93EC010E94EB2754
:1050A000382F882321F524E640E253E0215039F0DF
:1050B0008D81882309F1CA010197F1F7F7CF80911B
:1050C0002A2690912B26009721F060E674E20E9438
:1050D000D42A87E08E831D82E881F98183E083836F
:1050E0003AEF05C0843011F037EF01C03DEF832F58
:1050F000DF91CF910F9108958E81882399F7F7CF93
:105100000F93042F40E050E020E00E944A280F91C6
:1051100008950F9300E00E944A280F9108950F937D
:10512000042F40E050E020E00E94EB270F9108950B
:105130000F9300E00E94EB270F910895DF92EF920A
:10514000FF920F931F93DF93CF93CDB7DEB7C05875
:10515000D040CDBFDEBF8C01D62E00D000D0EDB741
:10516000FEB731967E010894E11CF11CADB7BEB7C5
:105170001196ED92FC9212978EE694E282839383CD
:10518000648315820E94C34B80912A2690912B261E
:10519000EDB7FEB73696EDBFFEBF009719F0B70129
:1051A0000E94D42AC8016D2D40E050E020E00E940A
:1051B000982887FD28C024E640E253E0215049F0BA
:1051C000D80115968C91882351F1CA010197F1F706
:1051D000F5CF80912A2690912B26009721F06CE73D
:1051E00074E20E94D42A87E0F80186831582019038
:1051F000F081E02D83E083838AEF05C0843011F0D5
:1052000087EF01C08DEFC058DF4FCDBFDEBFCF911C
:10521000DF911F910F91FF90EF90DF900895D801DB
:1052200016968C91882379F3E9CF0E94954A0895C8
:105230000E94954A08950E94E84908950E94E8490D
:1052400008950F931F93CF93DF938C01EB0109C057
:105250002196D801ED91FC910190F081E02DC801DB
:10526000199568816623A1F7DF91CF911F910F9166
:105270000895EF92FF920F931F93CF93DF938C01CA
:105280007B01EA010CC0D7016D917D01D801ED9140
:10529000FC910190F081E02DC8011995219720978C
:1052A00091F7DF91CF911F910F91FF90EF900895AB
:1052B000DC01ED91FC910280F381E02D19950895B8
:1052C0002F923F924F925F926F927F928F929F9216
:1052D000AF92BF92CF92DF92EF92FF920F931F9304
:1052E000DF93CF93CDB7DEB7A097CDBFDEBF1C0154
:1052F0006A017B01411551056105710549F440E3DF
:1053000050E060E070E020E030E00E94242A54C0C9
:10531000882499245401422E55246624772401E0E0
:1053200010E00C0F1D1F080D191DC701B601A301C8
:1053300092010E947449F80160830894811C911CB9
:10534000A11CB11CC701B601A30192010E947449BE
:10535000C901DA016C017D01C114D104E104F10439
:10536000F1F681E0E82EF12CEC0EFD1EE80CF91CA4
:105370003E010894611C711CD501C4010197A1096B
:10538000B1096C01C818D90814C0F601EE0DFF1D53
:1053900040814A3010F4405D01C0495C50E060E05B
:1053A00070E0C10120E030E00E94242A0894E10866
:1053B000F1086E147F0449F7A096CDBFDEBFCF91F0
:1053C000DF911F910F91FF90EF90DF90CF90BF90F2
:1053D000AF909F908F907F906F905F904F903F9095
:1053E0002F900895DC012115310541F4ED91FC91D8
:1053F0000190F081E02D642F199508950E94602995
:105400000895EF92FF920F931F939A017B0100E0A2
:1054100010E0B801A7010E94F2291F910F91FF909F
:10542000EF900895EF92FF920F931F939A01E62E4B
:10543000FF2400E010E0B801A7010E94F2291F91AB
:105440000F91FF90EF900895EF92FF920F931F93AB
:10545000CF93DF93EC017A018B012115310541F4E3
:10546000E881F9810190F081E02D642F19951BC02E
:105470002A303105B1F477FF10C04DE250E060E012
:1054800070E020E030E00E94242A10950095F0940E
:10549000E094E11CF11C011D111DCE01B801A70112
:1054A0002AE00E946029DF91CF911F910F91FF9018
:1054B000EF900895EF92FF920F931F937B019A0153
:1054C0000027F7FC0095102FB801A7010E94242A9D
:1054D0001F910F91FF90EF900895EF92FF920F931D
:1054E0001F939A01E62EFF2400E010E0B801A70107
:1054F0000E94242A1F910F91FF90EF9008950F931F
:105500001F938C014DE050E060E070E020E030E05F
:105510000E94242AC8014AE050E060E070E020E0E8
:1055200030E00E94242A1F910F9108950F931F933A
:105530008C010E94F229C8010E947F2A1F910F91BD
:105540000895CF92DF92EF92FF920F931F938C01F9
:105550009A016B01EE24FF24B701A6010E94F229F3
:10556000C8010E947F2A1F910F91FF90EF90DF905A
:10557000CF900895CF92DF92EF92FF920F931F93F7
:105580008C019A01C62EDD24EE24FF24B701A6016A
:105590000E94F229C8010E947F2A1F910F91FF905B
:1055A000EF90DF90CF9008950F931F938C010E948E
:1055B0005829C8010E947F2A1F910F9108950F93C7
:1055C0001F938C010E94242AC8010E947F2A1F91E8
:1055D0000F910895CF92DF92EF92FF920F931F9356
:1055E0008C016B019A01EE24D7FCE094FE2CB701EC
:1055F000A6010E94242AC8010E947F2A1F910F91B0
:10560000FF90EF90DF90CF900895CF92DF92EF92CE
:10561000FF920F931F938C019A01C62EDD24EE2476
:10562000FF24B701A6010E94242AC8010E947F2AF4
:105630001F910F91FF90EF90DF90CF9008959F9270
:10564000AF92BF92CF92DF92EF92FF920F931F9390
:10565000CF93DF93EC017A018B01922ECB01BA013B
:1056600020E030E040E050E00E94D24588236CF416
:10567000CE014DE250E060E070E020E030E00E94BA
:10568000242A17FB109517F9109520E030E040E030
:105690005FE3AA240BC0CA01B90120E030E040E278
:1056A00051E40E94F6449B01AC01A394A91498F321
:1056B000C801B7010E94CF435B016C010E942642E2
:1056C0007B018C01CE01B801A7012AE030E00E94E5
:1056D000F229992029F0CE0167EA74E20E94582944
:1056E000C801B7010E94B4469B01AC01C601B501D7
:1056F0000E949E4322C020E030E040E251E40E943C
:10570000FC437B018C010E9460465B016C01CC2450
:10571000B7FCC094DC2CCE01B601A5012AE030E034
:105720000E94242AC601B5010E9402469B01AC01D9
:10573000C801B7010E949E439A949920E1F6DF9137
:10574000CF911F910F91FF90EF90DF90CF90BF907E
:10575000AF909F9008950E941F2B08950F931F9361
:105760008C010E941F2BC8010E947F2A1F910F915C
:10577000089526E08030920729F46093CB2B709334
:10578000CC2B089526E08032920729F46093CD2B2C
:105790007093CE2B089526E08034920729F460930D
:1057A000CF2B7093D02B089526E08036920729F4F2
:1057B0006093D12B7093D22B089526E08038920706
:1057C00029F46093D32B7093D42B089526E0803A6C
:1057D000920729F46093D52B7093D62B0895805EA1
:1057E000964021F46093D72B7093D82B0895FC0139
:1057F000CB0160837183BF010E94B92B0895FC0126
:10580000CB0160837183BF010E94B92B0895FC0115
:105810008081918160E070E00E94B92B0895FC01C5
:105820008081918160E070E00E94B92B0895FC01B5
:105830006283738344830895CF93DF93EC01AA813D
:10584000BB81109749F0ED91FC9111970190F08187
:10585000E02DCD016C811995E881F98181E0848783
:10586000DF91CF9108951F920F920FB60F9208B655
:105870000F9209B60F920BB60F92112418BE19BEE3
:105880001BBE2F933F934F935F936F937F938F93A1
:105890009F93AF93BF93EF93FF938091D72B9091FA
:1058A000D82B009711F00E941C2CFF91EF91BF9113
:1058B000AF919F918F917F916F915F914F913F91A8
:1058C0002F910F900BBE0F9009BE0F9008BE0F9046
:1058D0000FBE0F901F9018951F920F920FB60F9248
:1058E00008B60F9209B60F920BB60F92112418BE8C
:1058F00019BE1BBE2F933F934F935F936F937F937C
:105900008F939F93AF93BF93EF93FF938091D52B8A
:105910009091D62B009711F00E941C2CFF91EF91D3
:10592000BF91AF919F918F917F916F915F914F91B7
:105930003F912F910F900BBE0F9009BE0F9008BEA4
:105940000F900FBE0F901F9018951F920F920FB6D9
:105950000F9208B60F9209B60F920BB60F92112450
:1059600018BE19BE1BBE2F933F934F935F936F9347
:105970007F938F939F93AF93BF93EF93FF93809108
:10598000D32B9091D42B009711F00E941C2CFF91E7
:10599000EF91BF91AF919F918F917F916F915F91A7
:1059A0004F913F912F910F900BBE0F9009BE0F901A
:1059B00008BE0F900FBE0F901F9018951F920F9268
:1059C0000FB60F9208B60F9209B60F920BB60F9250
:1059D000112418BE19BE1BBE2F933F934F935F93A4
:1059E0006F937F938F939F93AF93BF93EF93FF93A7
:1059F0008091D12B9091D22B009711F00E941C2CFA
:105A0000FF91EF91BF91AF919F918F917F916F9196
:105A10005F914F913F912F910F900BBE0F9009BE58
:105A20000F9008BE0F900FBE0F901F9018951F92F9
:105A30000F920FB60F9208B60F9209B60F920BB6DF
:105A40000F92112418BE19BE1BBE2F933F934F9384
:105A50005F936F937F938F939F93AF93BF93EF93D6
:105A6000FF938091CF2B9091D02B009711F00E9443
:105A70001C2CFF91EF91BF91AF919F918F917F91DE
:105A80006F915F914F913F912F910F900BBE0F90AF
:105A900009BE0F9008BE0F900FBE0F901F90189573
:105AA0001F920F920FB60F9208B60F9209B60F927F
:105AB0000BB60F92112418BE19BE1BBE2F933F9335
:105AC0004F935F936F937F938F939F93AF93BF9306
:105AD000EF93FF938091CD2B9091CE2B009711F0F7
